{
  "_format": "hh3-artifact-1",
  "contractName": "SkillVerification",
  "sourceName": "contracts/SkillVerification.sol",
  "abi": [
    {
      "inputs": [],
      "stateMutability": "nonpayable",
      "type": "constructor"
    },
    {
      "anonymous": false,
      "inputs": [
        {
          "indexed": true,
          "internalType": "uint256",
          "name": "claimId",
          "type": "uint256"
        },
        {
          "indexed": false,
          "internalType": "bool",
          "name": "claimantWon",
          "type": "bool"
        },
        {
          "indexed": false,
          "internalType": "address",
          "name": "winner",
          "type": "address"
        },
        {
          "indexed": false,
          "internalType": "uint256",
          "name": "totalAmount",
          "type": "uint256"
        }
      ],
      "name": "ChallengeResolved",
      "type": "event"
    },
    {
      "anonymous": false,
      "inputs": [
        {
          "indexed": true,
          "internalType": "address",
          "name": "challenger",
          "type": "address"
        },
        {
          "indexed": true,
          "internalType": "uint256",
          "name": "claimId",
          "type": "uint256"
        },
        {
          "indexed": false,
          "internalType": "string",
          "name": "reason",
          "type": "string"
        },
        {
          "indexed": false,
          "internalType": "uint256",
          "name": "stakeAmount",
          "type": "uint256"
        }
      ],
      "name": "ClaimChallenged",
      "type": "event"
    },
    {
      "anonymous": false,
      "inputs": [
        {
          "indexed": true,
          "internalType": "address",
          "name": "user",
          "type": "address"
        },
        {
          "indexed": true,
          "internalType": "uint256",
          "name": "claimId",
          "type": "uint256"
        },
        {
          "indexed": false,
          "internalType": "string",
          "name": "skillId",
          "type": "string"
        },
        {
          "indexed": false,
          "internalType": "uint256",
          "name": "stakeAmount",
          "type": "uint256"
        },
        {
          "indexed": false,
          "internalType": "string",
          "name": "problemStatement",
          "type": "string"
        }
      ],
      "name": "ClaimStaked",
      "type": "event"
    },
    {
      "anonymous": false,
      "inputs": [
        {
          "indexed": true,
          "internalType": "uint256",
          "name": "claimId",
          "type": "uint256"
        },
        {
          "indexed": false,
          "internalType": "string",
          "name": "solution",
          "type": "string"
        }
      ],
      "name": "ProblemSolved",
      "type": "event"
    },
    {
      "anonymous": false,
      "inputs": [
        {
          "indexed": true,
          "internalType": "address",
          "name": "oldResolver",
          "type": "address"
        },
        {
          "indexed": true,
          "internalType": "address",
          "name": "newResolver",
          "type": "address"
        }
      ],
      "name": "ResolverUpdated",
      "type": "event"
    },
    {
      "anonymous": false,
      "inputs": [
        {
          "indexed": true,
          "internalType": "address",
          "name": "resolver",
          "type": "address"
        },
        {
          "indexed": true,
          "internalType": "uint256",
          "name": "claimId",
          "type": "uint256"
        },
        {
          "indexed": false,
          "internalType": "bool",
          "name": "supportsClaimant",
          "type": "bool"
        },
        {
          "indexed": false,
          "internalType": "string",
          "name": "reasoning",
          "type": "string"
        }
      ],
      "name": "ResolverVoted",
      "type": "event"
    },
    {
      "anonymous": false,
      "inputs": [
        {
          "indexed": false,
          "internalType": "string",
          "name": "skillId",
          "type": "string"
        },
        {
          "indexed": false,
          "internalType": "string",
          "name": "problemStatement",
          "type": "string"
        }
      ],
      "name": "SkillAdded",
      "type": "event"
    },
    {
      "anonymous": false,
      "inputs": [
        {
          "indexed": true,
          "internalType": "address",
          "name": "user",
          "type": "address"
        },
        {
          "indexed": false,
          "internalType": "string",
          "name": "skillId",
          "type": "string"
        },
        {
          "indexed": true,
          "internalType": "address",
          "name": "assignedBy",
          "type": "address"
        }
      ],
      "name": "SkillDirectlyAssigned",
      "type": "event"
    },
    {
      "anonymous": false,
      "inputs": [
        {
          "indexed": false,
          "internalType": "string",
          "name": "skillId",
          "type": "string"
        }
      ],
      "name": "SkillRemoved",
      "type": "event"
    },
    {
      "anonymous": false,
      "inputs": [
        {
          "indexed": true,
          "internalType": "address",
          "name": "user",
          "type": "address"
        },
        {
          "indexed": false,
          "internalType": "string",
          "name": "skillId",
          "type": "string"
        }
      ],
      "name": "SkillVerified",
      "type": "event"
    },
    {
      "anonymous": false,
      "inputs": [
        {
          "indexed": true,
          "internalType": "uint256",
          "name": "claimId",
          "type": "uint256"
        },
        {
          "indexed": true,
          "internalType": "address",
          "name": "winner",
          "type": "address"
        },
        {
          "indexed": false,
          "internalType": "uint256",
          "name": "winnerAmount",
          "type": "uint256"
        },
        {
          "indexed": false,
          "internalType": "uint256",
          "name": "platformAmount",
          "type": "uint256"
        },
        {
          "indexed": false,
          "internalType": "uint256",
          "name": "resolverAmount",
          "type": "uint256"
        }
      ],
      "name": "StakeDistributed",
      "type": "event"
    },
    {
      "inputs": [],
      "name": "CHALLENGE_WINDOW",
      "outputs": [
        {
          "internalType": "uint256",
          "name": "",
          "type": "uint256"
        }
      ],
      "stateMutability": "view",
      "type": "function"
    },
    {
      "inputs": [],
      "name": "PREDEFINED_STAKE_AMOUNT",
      "outputs": [
        {
          "internalType": "uint256",
          "name": "",
          "type": "uint256"
        }
      ],
      "stateMutability": "view",
      "type": "function"
    },
    {
      "inputs": [],
      "name": "PROBLEM_SOLVING_TIME",
      "outputs": [
        {
          "internalType": "uint256",
          "name": "",
          "type": "uint256"
        }
      ],
      "stateMutability": "view",
      "type": "function"
    },
    {
      "inputs": [
        {
          "internalType": "string[]",
          "name": "_skillIds",
          "type": "string[]"
        },
        {
          "internalType": "string[]",
          "name": "_problemStatements",
          "type": "string[]"
        }
      ],
      "name": "addMultipleSkills",
      "outputs": [],
      "stateMutability": "nonpayable",
      "type": "function"
    },
    {
      "inputs": [
        {
          "internalType": "string",
          "name": "_skillId",
          "type": "string"
        },
        {
          "internalType": "string",
          "name": "_problemStatement",
          "type": "string"
        }
      ],
      "name": "addSkill",
      "outputs": [],
      "stateMutability": "nonpayable",
      "type": "function"
    },
    {
      "inputs": [
        {
          "internalType": "string",
          "name": "",
          "type": "string"
        }
      ],
      "name": "availableSkills",
      "outputs": [
        {
          "internalType": "bool",
          "name": "",
          "type": "bool"
        }
      ],
      "stateMutability": "view",
      "type": "function"
    },
    {
      "inputs": [
        {
          "internalType": "uint256",
          "name": "_claimId",
          "type": "uint256"
        },
        {
          "internalType": "string",
          "name": "_reason",
          "type": "string"
        }
      ],
      "name": "challengeClaim",
      "outputs": [],
      "stateMutability": "payable",
      "type": "function"
    },
    {
      "inputs": [
        {
          "internalType": "uint256",
          "name": "",
          "type": "uint256"
        }
      ],
      "name": "challenges",
      "outputs": [
        {
          "internalType": "address",
          "name": "challenger",
          "type": "address"
        },
        {
          "internalType": "uint256",
          "name": "stakeAmount",
          "type": "uint256"
        },
        {
          "internalType": "string",
          "name": "reason",
          "type": "string"
        },
        {
          "internalType": "uint256",
          "name": "claimId",
          "type": "uint256"
        },
        {
          "internalType": "uint256",
          "name": "challengeTimestamp",
          "type": "uint256"
        }
      ],
      "stateMutability": "view",
      "type": "function"
    },
    {
      "inputs": [
        {
          "internalType": "uint256",
          "name": "_claimId",
          "type": "uint256"
        }
      ],
      "name": "checkTimeExpiry",
      "outputs": [],
      "stateMutability": "nonpayable",
      "type": "function"
    },
    {
      "inputs": [
        {
          "internalType": "uint256",
          "name": "",
          "type": "uint256"
        }
      ],
      "name": "claims",
      "outputs": [
        {
          "internalType": "address",
          "name": "user",
          "type": "address"
        },
        {
          "internalType": "string",
          "name": "skillId",
          "type": "string"
        },
        {
          "internalType": "uint256",
          "name": "stakeAmount",
          "type": "uint256"
        },
        {
          "internalType": "enum SkillVerification.Status",
          "name": "status",
          "type": "uint8"
        },
        {
          "internalType": "uint256",
          "name": "claimTimestamp",
          "type": "uint256"
        },
        {
          "internalType": "uint256",
          "name": "problemDeadline",
          "type": "uint256"
        },
        {
          "internalType": "uint256",
          "name": "challengeDeadline",
          "type": "uint256"
        },
        {
          "internalType": "bool",
          "name": "problemSolved",
          "type": "bool"
        },
        {
          "internalType": "string",
          "name": "problemStatement",
          "type": "string"
        },
        {
          "internalType": "string",
          "name": "solution",
          "type": "string"
        }
      ],
      "stateMutability": "view",
      "type": "function"
    },
    {
      "inputs": [
        {
          "internalType": "address",
          "name": "_user",
          "type": "address"
        },
        {
          "internalType": "string[]",
          "name": "_skillIds",
          "type": "string[]"
        }
      ],
      "name": "directlyAssignMultipleSkills",
      "outputs": [],
      "stateMutability": "nonpayable",
      "type": "function"
    },
    {
      "inputs": [
        {
          "internalType": "address",
          "name": "_user",
          "type": "address"
        },
        {
          "internalType": "string",
          "name": "_skillId",
          "type": "string"
        }
      ],
      "name": "directlyAssignSkill",
      "outputs": [],
      "stateMutability": "nonpayable",
      "type": "function"
    },
    {
      "inputs": [],
      "name": "emergencyWithdraw",
      "outputs": [],
      "stateMutability": "nonpayable",
      "type": "function"
    },
    {
      "inputs": [],
      "name": "getAllSkills",
      "outputs": [
        {
          "internalType": "string[]",
          "name": "",
          "type": "string[]"
        }
      ],
      "stateMutability": "view",
      "type": "function"
    },
    {
      "inputs": [
        {
          "internalType": "uint256",
          "name": "_claimId",
          "type": "uint256"
        }
      ],
      "name": "getChallengeForClaim",
      "outputs": [
        {
          "components": [
            {
              "internalType": "address",
              "name": "challenger",
              "type": "address"
            },
            {
              "internalType": "uint256",
              "name": "stakeAmount",
              "type": "uint256"
            },
            {
              "internalType": "string",
              "name": "reason",
              "type": "string"
            },
            {
              "internalType": "uint256",
              "name": "claimId",
              "type": "uint256"
            },
            {
              "internalType": "uint256",
              "name": "challengeTimestamp",
              "type": "uint256"
            }
          ],
          "internalType": "struct SkillVerification.Challenge",
          "name": "",
          "type": "tuple"
        }
      ],
      "stateMutability": "view",
      "type": "function"
    },
    {
      "inputs": [
        {
          "internalType": "uint256",
          "name": "_claimId",
          "type": "uint256"
        }
      ],
      "name": "getClaim",
      "outputs": [
        {
          "components": [
            {
              "internalType": "address",
              "name": "user",
              "type": "address"
            },
            {
              "internalType": "string",
              "name": "skillId",
              "type": "string"
            },
            {
              "internalType": "uint256",
              "name": "stakeAmount",
              "type": "uint256"
            },
            {
              "internalType": "enum SkillVerification.Status",
              "name": "status",
              "type": "uint8"
            },
            {
              "internalType": "uint256",
              "name": "claimTimestamp",
              "type": "uint256"
            },
            {
              "internalType": "uint256",
              "name": "problemDeadline",
              "type": "uint256"
            },
            {
              "internalType": "uint256",
              "name": "challengeDeadline",
              "type": "uint256"
            },
            {
              "internalType": "bool",
              "name": "problemSolved",
              "type": "bool"
            },
            {
              "internalType": "string",
              "name": "problemStatement",
              "type": "string"
            },
            {
              "internalType": "string",
              "name": "solution",
              "type": "string"
            }
          ],
          "internalType": "struct SkillVerification.SkillClaim",
          "name": "",
          "type": "tuple"
        }
      ],
      "stateMutability": "view",
      "type": "function"
    },
    {
      "inputs": [],
      "name": "getPendingClaimIds",
      "outputs": [
        {
          "internalType": "uint256[]",
          "name": "",
          "type": "uint256[]"
        }
      ],
      "stateMutability": "view",
      "type": "function"
    },
    {
      "inputs": [],
      "name": "getPendingClaims",
      "outputs": [
        {
          "internalType": "string[]",
          "name": "",
          "type": "string[]"
        }
      ],
      "stateMutability": "view",
      "type": "function"
    },
    {
      "inputs": [],
      "name": "getPendingClaimsDetails",
      "outputs": [
        {
          "components": [
            {
              "internalType": "address",
              "name": "user",
              "type": "address"
            },
            {
              "internalType": "string",
              "name": "skillId",
              "type": "string"
            },
            {
              "internalType": "uint256",
              "name": "stakeAmount",
              "type": "uint256"
            },
            {
              "internalType": "enum SkillVerification.Status",
              "name": "status",
              "type": "uint8"
            },
            {
              "internalType": "uint256",
              "name": "claimTimestamp",
              "type": "uint256"
            },
            {
              "internalType": "uint256",
              "name": "problemDeadline",
              "type": "uint256"
            },
            {
              "internalType": "uint256",
              "name": "challengeDeadline",
              "type": "uint256"
            },
            {
              "internalType": "bool",
              "name": "problemSolved",
              "type": "bool"
            },
            {
              "internalType": "string",
              "name": "problemStatement",
              "type": "string"
            },
            {
              "internalType": "string",
              "name": "solution",
              "type": "string"
            }
          ],
          "internalType": "struct SkillVerification.SkillClaim[]",
          "name": "",
          "type": "tuple[]"
        }
      ],
      "stateMutability": "view",
      "type": "function"
    },
    {
      "inputs": [],
      "name": "getPredefinedStakeAmount",
      "outputs": [
        {
          "internalType": "uint256",
          "name": "",
          "type": "uint256"
        }
      ],
      "stateMutability": "pure",
      "type": "function"
    },
    {
      "inputs": [
        {
          "internalType": "string",
          "name": "_skillId",
          "type": "string"
        }
      ],
      "name": "getProblemStatement",
      "outputs": [
        {
          "internalType": "string",
          "name": "",
          "type": "string"
        }
      ],
      "stateMutability": "view",
      "type": "function"
    },
    {
      "inputs": [
        {
          "internalType": "uint256",
          "name": "_claimId",
          "type": "uint256"
        }
      ],
      "name": "getResolverVotes",
      "outputs": [
        {
          "components": [
            {
              "internalType": "address",
              "name": "resolver",
              "type": "address"
            },
            {
              "internalType": "bool",
              "name": "supportsClaimant",
              "type": "bool"
            },
            {
              "internalType": "string",
              "name": "reasoning",
              "type": "string"
            },
            {
              "internalType": "uint256",
              "name": "timestamp",
              "type": "uint256"
            }
          ],
          "internalType": "struct SkillVerification.ResolverVote[]",
          "name": "",
          "type": "tuple[]"
        }
      ],
      "stateMutability": "view",
      "type": "function"
    },
    {
      "inputs": [
        {
          "internalType": "string",
          "name": "_skillId",
          "type": "string"
        }
      ],
      "name": "getVerifiedUsersForSkill",
      "outputs": [
        {
          "internalType": "address[]",
          "name": "",
          "type": "address[]"
        }
      ],
      "stateMutability": "view",
      "type": "function"
    },
    {
      "inputs": [
        {
          "internalType": "address",
          "name": "_user",
          "type": "address"
        },
        {
          "internalType": "string",
          "name": "_skillId",
          "type": "string"
        }
      ],
      "name": "hasUserSkill",
      "outputs": [
        {
          "internalType": "bool",
          "name": "",
          "type": "bool"
        }
      ],
      "stateMutability": "view",
      "type": "function"
    },
    {
      "inputs": [
        {
          "internalType": "string",
          "name": "_skillId",
          "type": "string"
        }
      ],
      "name": "isSkillAvailable",
      "outputs": [
        {
          "internalType": "bool",
          "name": "",
          "type": "bool"
        }
      ],
      "stateMutability": "view",
      "type": "function"
    },
    {
      "inputs": [],
      "name": "nextChallengeId",
      "outputs": [
        {
          "internalType": "uint256",
          "name": "",
          "type": "uint256"
        }
      ],
      "stateMutability": "view",
      "type": "function"
    },
    {
      "inputs": [],
      "name": "nextClaimId",
      "outputs": [
        {
          "internalType": "uint256",
          "name": "",
          "type": "uint256"
        }
      ],
      "stateMutability": "view",
      "type": "function"
    },
    {
      "inputs": [],
      "name": "owner",
      "outputs": [
        {
          "internalType": "address",
          "name": "",
          "type": "address"
        }
      ],
      "stateMutability": "view",
      "type": "function"
    },
    {
      "inputs": [
        {
          "internalType": "string",
          "name": "_skillId",
          "type": "string"
        }
      ],
      "name": "removeSkill",
      "outputs": [],
      "stateMutability": "nonpayable",
      "type": "function"
    },
    {
      "inputs": [
        {
          "internalType": "uint256",
          "name": "_claimId",
          "type": "uint256"
        }
      ],
      "name": "resolveChallenge",
      "outputs": [],
      "stateMutability": "nonpayable",
      "type": "function"
    },
    {
      "inputs": [],
      "name": "resolver",
      "outputs": [
        {
          "internalType": "address",
          "name": "",
          "type": "address"
        }
      ],
      "stateMutability": "view",
      "type": "function"
    },
    {
      "inputs": [
        {
          "internalType": "uint256",
          "name": "",
          "type": "uint256"
        },
        {
          "internalType": "uint256",
          "name": "",
          "type": "uint256"
        }
      ],
      "name": "resolverVotes",
      "outputs": [
        {
          "internalType": "address",
          "name": "resolver",
          "type": "address"
        },
        {
          "internalType": "bool",
          "name": "supportsClaimant",
          "type": "bool"
        },
        {
          "internalType": "string",
          "name": "reasoning",
          "type": "string"
        },
        {
          "internalType": "uint256",
          "name": "timestamp",
          "type": "uint256"
        }
      ],
      "stateMutability": "view",
      "type": "function"
    },
    {
      "inputs": [
        {
          "internalType": "address",
          "name": "_newResolver",
          "type": "address"
        }
      ],
      "name": "setResolver",
      "outputs": [],
      "stateMutability": "nonpayable",
      "type": "function"
    },
    {
      "inputs": [
        {
          "internalType": "uint256",
          "name": "",
          "type": "uint256"
        }
      ],
      "name": "skillList",
      "outputs": [
        {
          "internalType": "string",
          "name": "",
          "type": "string"
        }
      ],
      "stateMutability": "view",
      "type": "function"
    },
    {
      "inputs": [
        {
          "internalType": "string",
          "name": "",
          "type": "string"
        }
      ],
      "name": "skillProblemStatements",
      "outputs": [
        {
          "internalType": "string",
          "name": "",
          "type": "string"
        }
      ],
      "stateMutability": "view",
      "type": "function"
    },
    {
      "inputs": [
        {
          "internalType": "string",
          "name": "_skillId",
          "type": "string"
        }
      ],
      "name": "stakeClaim",
      "outputs": [],
      "stateMutability": "payable",
      "type": "function"
    },
    {
      "inputs": [
        {
          "internalType": "uint256",
          "name": "_claimId",
          "type": "uint256"
        },
        {
          "internalType": "string",
          "name": "_solution",
          "type": "string"
        }
      ],
      "name": "submitSolution",
      "outputs": [],
      "stateMutability": "nonpayable",
      "type": "function"
    },
    {
      "inputs": [
        {
          "internalType": "string",
          "name": "_skillId",
          "type": "string"
        },
        {
          "internalType": "string",
          "name": "_newProblemStatement",
          "type": "string"
        }
      ],
      "name": "updateProblemStatement",
      "outputs": [],
      "stateMutability": "nonpayable",
      "type": "function"
    },
    {
      "inputs": [
        {
          "internalType": "address",
          "name": "",
          "type": "address"
        },
        {
          "internalType": "string",
          "name": "",
          "type": "string"
        }
      ],
      "name": "userSkills",
      "outputs": [
        {
          "internalType": "bool",
          "name": "",
          "type": "bool"
        }
      ],
      "stateMutability": "view",
      "type": "function"
    },
    {
      "inputs": [
        {
          "internalType": "string",
          "name": "",
          "type": "string"
        },
        {
          "internalType": "uint256",
          "name": "",
          "type": "uint256"
        }
      ],
      "name": "verifiedSkills",
      "outputs": [
        {
          "internalType": "address",
          "name": "",
          "type": "address"
        }
      ],
      "stateMutability": "view",
      "type": "function"
    },
    {
      "inputs": [
        {
          "internalType": "uint256",
          "name": "_claimId",
          "type": "uint256"
        },
        {
          "internalType": "bool",
          "name": "_supportsClaimant",
          "type": "bool"
        },
        {
          "internalType": "string",
          "name": "_reasoning",
          "type": "string"
        }
      ],
      "name": "voteOnChallenge",
      "outputs": [],
      "stateMutability": "nonpayable",
      "type": "function"
    }
  ],
  "bytecode": "0x6080604052348015600e575f5ffd5b505f8054336001600160a01b0319918216811783556001805490921617905561532990819061003c90395ff3fe60806040526004361061023d575f3560e01c806385aa64d911610134578063c9e0d13c116100b3578063d862ae8711610078578063d862ae8714610749578063db2e21bc14610768578063e6cb47ae1461077c578063e878642a1461078f578063f66c4b50146107a8578063fc67aa50146107c7575f5ffd5b8063c9e0d13c146106b5578063ccc3bba8146106d4578063d3b5c016146106e8578063d5a28d3314610707578063d62aad2914610733575f5ffd5b80639cd1caec116100f95780639cd1caec1461060c5780639eaee18f1461062b578063a0021cf11461064c578063a0e72be414610661578063a888c2cd14610680575f5ffd5b806385aa64d91461056b578063861d3b021461058a57806388f1ed18146105a95780638da5cb5b146105be5780638f1d3776146105dc575f5ffd5b806359bb9298116101c0578063726b245e11610185578063726b245e146104c5578063761c7cfe146104ed578063764dc9251461050c57806376a977551461052d57806382dd38f11461054c575f5ffd5b806359bb9298146103f65780635aef2447146104225780635b7915101461044e5780635c7c39961461047a5780636042ab1c146104a6575f5ffd5b806333d5af111161020657806333d5af111461033c578063399f8c3c1461036b5780633b74b77a146103a55780634e543b26146103b85780634f88b83c146103d7575f5ffd5b80628179701461024157806304f3bcec1461026b5780630a563e39146102a25780630d3a8333146102fc5780632def9f1f1461031d575b5f5ffd5b34801561024c575f5ffd5b506102556107dc565b6040516102629190614520565b60405180910390f35b348015610276575f5ffd5b5060015461028a906001600160a01b031681565b6040516001600160a01b039091168152602001610262565b3480156102ad575f5ffd5b506102ec6102bc36600461464d565b600860209081525f9283526040909220815180830184018051928152908401929093019190912091525460ff1681565b6040519015158152602001610262565b348015610307575f5ffd5b5061031b610316366004614739565b610bac565b005b348015610328575f5ffd5b5061031b610337366004614792565b610e27565b348015610347575f5ffd5b5061035b6103563660046147a9565b611089565b60405161026294939291906147c9565b348015610376575f5ffd5b506102ec610385366004614805565b805160208183018101805160068252928201919093012091525460ff1681565b61031b6103b336600461483e565b611163565b3480156103c3575f5ffd5b5061031b6103d236600461486b565b6115c0565b3480156103e2575f5ffd5b5061031b6103f136600461488b565b611690565b348015610401575f5ffd5b50610415610410366004614805565b61186c565b60405161026291906148bf565b34801561042d575f5ffd5b5061044161043c366004614792565b61190f565b60405161026291906149bd565b348015610459575f5ffd5b5061046d610468366004614805565b611b94565b60405161026291906149cf565b348015610485575f5ffd5b50610499610494366004614792565b611c0c565b6040516102629190614a1a565b3480156104b1575f5ffd5b5061031b6104c0366004614805565b611ddf565b3480156104d0575f5ffd5b506104df662386f26fc1000081565b604051908152602001610262565b3480156104f8575f5ffd5b5061031b610507366004614792565b611fad565b348015610517575f5ffd5b506105206125be565b6040516102629190614a71565b348015610538575f5ffd5b506102ec61054736600461464d565b61298e565b348015610557575f5ffd5b50610415610566366004614792565b6129cf565b348015610576575f5ffd5b5061028a610585366004614ac8565b6129f6565b348015610595575f5ffd5b5061031b6105a4366004614b09565b612a3b565b3480156105b4575f5ffd5b506104df611c2081565b3480156105c9575f5ffd5b505f5461028a906001600160a01b031681565b3480156105e7575f5ffd5b506105fb6105f6366004614792565b612aee565b604051610262959493929190614b56565b348015610617575f5ffd5b5061031b610626366004614b90565b612bac565b348015610636575f5ffd5b5061063f612f7c565b6040516102629190614be8565b348015610657575f5ffd5b506104df600a5481565b34801561066c575f5ffd5b5061041561067b366004614805565b61332b565b34801561068b575f5ffd5b5061069f61069a366004614792565b61340e565b6040516102629a99989796959493929190614c1f565b3480156106c0575f5ffd5b506102ec6106cf366004614805565b613604565b3480156106df575f5ffd5b5061025561362e565b3480156106f3575f5ffd5b5061031b61070236600461483e565b613702565b348015610712575f5ffd5b50610726610721366004614792565b613980565b6040516102629190614ca9565b34801561073e575f5ffd5b506104df6203f48081565b348015610754575f5ffd5b5061031b610763366004614b09565b613ab0565b348015610773575f5ffd5b5061031b613c57565b61031b61078a366004614805565b613d59565b34801561079a575f5ffd5b50662386f26fc100006104df565b3480156107b3575f5ffd5b5061031b6107c236600461464d565b6141a3565b3480156107d2575f5ffd5b506104df600b5481565b60605f600a546001600160401b038111156107f9576107f961459e565b60405190808252806020026020018201604052801561082c57816020015b60608152602001906001900390816108175790505b5090505f60015b600a548111610b0b575f8181526002602090815260408083208151610140810190925280546001600160a01b03168252600181018054929391929184019161087a90614d36565b80601f01602080910402602001604051908101604052809291908181526020018280546108a690614d36565b80156108f15780601f106108c8576101008083540402835291602001916108f1565b820191905f5260205f20905b8154815290600101906020018083116108d457829003601f168201915b50505091835250506002820154602082015260038083015460409092019160ff1690811115610922576109226148d1565b6003811115610933576109336148d1565b8152600482015460208201526005820154604082015260068201546060820152600782015460ff161515608082015260088201805460a09092019161097790614d36565b80601f01602080910402602001604051908101604052809291908181526020018280546109a390614d36565b80156109ee5780601f106109c5576101008083540402835291602001916109ee565b820191905f5260205f20905b8154815290600101906020018083116109d157829003601f168201915b50505050508152602001600982018054610a0790614d36565b80601f0160208091040260200160405190810160405280929190818152602001828054610a3390614d36565b8015610a7e5780601f10610a5557610100808354040283529160200191610a7e565b820191905f5260205f20905b815481529060010190602001808311610a6157829003601f168201915b50505050508152505090505f6003811115610a9b57610a9b6148d1565b81606001516003811115610ab157610ab16148d1565b148015610ac257508060c001514211155b15610af8578060200151848481518110610ade57610ade614d6e565b60200260200101819052508280610af490614d96565b9350505b5080610b0381614d96565b915050610833565b505f816001600160401b03811115610b2557610b2561459e565b604051908082528060200260200182016040528015610b5857816020015b6060815260200190600190039081610b435790505b5090505f5b82811015610ba457838181518110610b7757610b77614d6e565b6020026020010151828281518110610b9157610b91614d6e565b6020908102919091010152600101610b5d565b509392505050565b5f546001600160a01b03163314610bde5760405162461bcd60e51b8152600401610bd590614dae565b60405180910390fd5b8051825114610c2f5760405162461bcd60e51b815260206004820152601c60248201527f417272617973206d75737420686176652073616d65206c656e677468000000006044820152606401610bd5565b5f5b8251811015610e22575f838281518110610c4d57610c4d614d6e565b602002602001015151118015610c7c57505f828281518110610c7157610c71614d6e565b602002602001015151115b8015610cc157506006838281518110610c9757610c97614d6e565b6020026020010151604051610cac9190614def565b9081526040519081900360200190205460ff16155b15610e1a5760016006848381518110610cdc57610cdc614d6e565b6020026020010151604051610cf19190614def565b908152604051908190036020019020805491151560ff199092169190911790558151829082908110610d2557610d25614d6e565b60200260200101516007848381518110610d4157610d41614d6e565b6020026020010151604051610d569190614def565b90815260200160405180910390209081610d709190614e50565b506009838281518110610d8557610d85614d6e565b60209081029190910181015182546001810184555f938452919092200190610dad9082614e50565b507fec30c61dce44ddcaec234c882fd9cc39db35bc5979c3c5f35286c9498e1547dc838281518110610de157610de1614d6e565b6020026020010151838381518110610dfb57610dfb614d6e565b6020026020010151604051610e11929190614f0d565b60405180910390a15b600101610c31565b505050565b5f81118015610e385750600a548111155b610e545760405162461bcd60e51b8152600401610bd590614f31565b5f818152600260205260409020600581015442118015610e795750600781015460ff16155b8015610e9c57505f60038083015460ff1690811115610e9a57610e9a6148d1565b145b15610f4c576003818101805460ff19169091179055805460028201546040515f926001600160a01b031691908381818185875af1925050503d805f8114610efe576040519150601f19603f3d011682016040523d82523d5f602084013e610f03565b606091505b5050905080610f4a5760405162461bcd60e51b815260206004820152601360248201527214dd185ad9481c995d1d5c9b8819985a5b1959606a1b6044820152606401610bd5565b505b806006015442118015610f7657505f60038083015460ff1690811115610f7457610f746148d1565b145b8015610f865750600781015460ff165b156110855760038101805460ff19166002179055805460018201805461103b926001600160a01b03169190610fba90614d36565b80601f0160208091040260200160405190810160405280929190818152602001828054610fe690614d36565b80156110315780601f1061100857610100808354040283529160200191611031565b820191905f5260205f20905b81548152906001019060200180831161101457829003601f168201915b5050505050614354565b80546040516001600160a01b03909116907fb39bbf6be54b5573c907ad5ecaf5eac200727986c7989e95c28c673f8ebf7da39061107c906001850190614f5b565b60405180910390a25b5050565b6004602052815f5260405f2081815481106110a2575f80fd5b5f918252602090912060039091020180546001820180546001600160a01b0383169550600160a01b90920460ff169350906110dc90614d36565b80601f016020809104026020016040519081016040528092919081815260200182805461110890614d36565b80156111535780601f1061112a57610100808354040283529160200191611153565b820191905f5260205f20905b81548152906001019060200180831161113657829003601f168201915b5050505050908060020154905084565b5f828152600260205260409020600101805461117e90614d36565b80601f01602080910402602001604051908101604052809291908181526020018280546111aa90614d36565b80156111f55780601f106111cc576101008083540402835291602001916111f5565b820191905f5260205f20905b8154815290600101906020018083116111d857829003601f168201915b5050335f908152600860205260409081902090519093506112199250849150614def565b9081526040519081900360200190205460ff166112485760405162461bcd60e51b8152600401610bd590614fe2565b5f831180156112595750600a548311155b6112755760405162461bcd60e51b8152600401610bd590614f31565b5f83815260026020526040812060039081015460ff169081111561129b5761129b6148d1565b146112df5760405162461bcd60e51b8152602060048201526014602482015273436c61696d206973206e6f742070656e64696e6760601b6044820152606401610bd5565b5f83815260026020526040902054336001600160a01b03909116036113465760405162461bcd60e51b815260206004820152601f60248201527f43616e6e6f74206368616c6c656e676520796f7572206f776e20636c61696d006044820152606401610bd5565b662386f26fc1000034146113ad5760405162461bcd60e51b815260206004820152602860248201527f4368616c6c656e6765207374616b65206d7573742062652065786163746c79206044820152670605c6062408aa8960c31b6064820152608401610bd5565b5f8251116113f65760405162461bcd60e51b8152602060048201526016602482015275526561736f6e2063616e6e6f7420626520656d70747960501b6044820152606401610bd5565b5f8381526002602052604090206007015460ff166114645760405162461bcd60e51b815260206004820152602560248201527f436c61696d616e74206d75737420736f6c7665207468652070726f626c656d20604482015264199a5c9cdd60da1b6064820152608401610bd5565b5f838152600260205260409020600601544211156114c45760405162461bcd60e51b815260206004820152601c60248201527f4368616c6c656e67652077696e646f77206861732065787069726564000000006044820152606401610bd5565b600b8054905f6114d383614d96565b90915550506040805160a08101825233815234602080830191825282840186815260608401889052426080850152600b545f9081526003909252939020825181546001600160a01b0319166001600160a01b0390911617815590516001820155915190919060028201906115479082614e50565b5060608201516003828101919091556080909201516004909101555f8481526002602052604090819020909101805460ff1916600117905551839033907f0df16aa9c799c75c3897799c72a6f0a0a212c54e52e88927501108085568beeb906115b3908690349061503f565b60405180910390a3505050565b5f546001600160a01b031633146115e95760405162461bcd60e51b8152600401610bd590614dae565b6001600160a01b03811661163f5760405162461bcd60e51b815260206004820152601f60248201527f5265736f6c7665722063616e6e6f74206265207a65726f2061646472657373006044820152606401610bd5565b600180546001600160a01b038381166001600160a01b0319831681179093556040519116919082907f84b83d2b66cac119ccaaca68b476b0dc5371d5f2fd27f697770a910175fd38b6905f90a35050565b5f546001600160a01b031633146116b95760405162461bcd60e51b8152600401610bd590614dae565b6001600160a01b03821661170f5760405162461bcd60e51b815260206004820152601b60248201527f5573657220616464726573732063616e6e6f74206265207a65726f00000000006044820152606401610bd5565b5f5b8151811015610e22575f82828151811061172d5761172d614d6e565b60200260200101515111801561177b5750600682828151811061175257611752614d6e565b60200260200101516040516117679190614def565b9081526040519081900360200190205460ff165b80156117d757506001600160a01b0383165f90815260086020526040902082518390839081106117ad576117ad614d6e565b60200260200101516040516117c29190614def565b9081526040519081900360200190205460ff16155b15611864576117ff838383815181106117f2576117f2614d6e565b6020026020010151614354565b336001600160a01b0316836001600160a01b03167f690fcac2743310e28e52e9f62bd8130d0af5fbe9fc6a91a0ebe131c858890f4784848151811061184657611846614d6e565b602002602001015160405161185b91906148bf565b60405180910390a35b600101611711565b80516020818301810180516007825292820191909301209152805461189090614d36565b80601f01602080910402602001604051908101604052809291908181526020018280546118bc90614d36565b80156119075780601f106118de57610100808354040283529160200191611907565b820191905f5260205f20905b8154815290600101906020018083116118ea57829003601f168201915b505050505081565b611917614438565b5f821180156119285750600a548211155b6119445760405162461bcd60e51b8152600401610bd590614f31565b5f828152600260209081526040918290208251610140810190935280546001600160a01b03168352600181018054919284019161198090614d36565b80601f01602080910402602001604051908101604052809291908181526020018280546119ac90614d36565b80156119f75780601f106119ce576101008083540402835291602001916119f7565b820191905f5260205f20905b8154815290600101906020018083116119da57829003601f168201915b50505091835250506002820154602082015260038083015460409092019160ff1690811115611a2857611a286148d1565b6003811115611a3957611a396148d1565b8152600482015460208201526005820154604082015260068201546060820152600782015460ff161515608082015260088201805460a090920191611a7d90614d36565b80601f0160208091040260200160405190810160405280929190818152602001828054611aa990614d36565b8015611af45780601f10611acb57610100808354040283529160200191611af4565b820191905f5260205f20905b815481529060010190602001808311611ad757829003601f168201915b50505050508152602001600982018054611b0d90614d36565b80601f0160208091040260200160405190810160405280929190818152602001828054611b3990614d36565b8015611b845780601f10611b5b57610100808354040283529160200191611b84565b820191905f5260205f20905b815481529060010190602001808311611b6757829003601f168201915b5050505050815250509050919050565b6060600582604051611ba69190614def565b9081526040805191829003602090810183208054808302850183019093528284529190830182828015611c0057602002820191905f5260205f20905b81546001600160a01b03168152600190910190602001808311611be2575b50505050509050919050565b611c436040518060a001604052805f6001600160a01b031681526020015f8152602001606081526020015f81526020015f81525090565b5f82118015611c545750600a548211155b611c705760405162461bcd60e51b8152600401610bd590614f31565b60015b600b548111611d8c575f8181526003602081905260409091200154839003611d7a575f81815260036020908152604091829020825160a08101845281546001600160a01b031681526001820154928101929092526002810180549293919291840191611cde90614d36565b80601f0160208091040260200160405190810160405280929190818152602001828054611d0a90614d36565b8015611d555780601f10611d2c57610100808354040283529160200191611d55565b820191905f5260205f20905b815481529060010190602001808311611d3857829003601f168201915b5050505050815260200160038201548152602001600482015481525050915050919050565b80611d8481614d96565b915050611c73565b5060405162461bcd60e51b815260206004820152602160248201527f4e6f206368616c6c656e676520666f756e6420666f72207468697320636c61696044820152606d60f81b6064820152608401610bd5565b5f546001600160a01b03163314611e085760405162461bcd60e51b8152600401610bd590614dae565b600681604051611e189190614def565b9081526040519081900360200190205460ff16611e475760405162461bcd60e51b8152600401610bd590615060565b5f600682604051611e589190614def565b908152604051908190036020018120805492151560ff1990931692909217909155600790611e87908390614def565b90815260200160405180910390205f611ea091906144a0565b5f5b600954811015611f7257818051906020012060098281548110611ec757611ec7614d6e565b905f5260205f2001604051611edc919061508e565b604051809103902003611f6a5760098054611ef9906001906150fb565b81548110611f0957611f09614d6e565b905f5260205f200160098281548110611f2457611f24614d6e565b905f5260205f20019081611f38919061510e565b506009805480611f4a57611f4a6151da565b600190038181905f5260205f20015f611f6391906144a0565b9055611f72565b600101611ea2565b507fd0247ca8ba4258bf67a783e6b2fcac8f510394003cb989222a4c411e74b29fb981604051611fa291906148bf565b60405180910390a150565b5f546001600160a01b03163314611fd65760405162461bcd60e51b8152600401610bd590614dae565b5f81118015611fe75750600a548111155b6120035760405162461bcd60e51b8152600401610bd590614f31565b60015f82815260026020526040902060039081015460ff169081111561202b5761202b6148d1565b146120725760405162461bcd60e51b815260206004820152601760248201527610db185a5b481a5cc81b9bdd0818da185b1b195b99d959604a1b6044820152606401610bd5565b5f818152600260209081526040808320600490925290912080546120cc5760405162461bcd60e51b8152602060048201526011602482015270139bc81d9bdd195cc818d85cdd081e595d607a1b6044820152606401610bd5565b5f80805b8354811015612132578381815481106120eb576120eb614d6e565b5f918252602090912060039091020154600160a01b900460ff161561211c578261211481614d96565b93505061212a565b8161212681614d96565b9250505b6001016120d0565b508082115f8080808060015b600b548111612190575f81815260036020819052604090912001548c900361217e575f818152600360205260409020546001600160a01b03169150612190565b8061218881614d96565b91505061213e565b50851561228857895460038b01805460ff1916600217905560018b0180546001600160a01b0390921696506121cb91879190610fba90614d36565b89546040516001600160a01b03909116907fb39bbf6be54b5573c907ad5ecaf5eac200727986c7989e95c28c673f8ebf7da39061220c9060018e0190614f5b565b60405180910390a26064612228662386f26fc1000060196151ee565b6122329190615205565b8a600201546122419190615224565b93506064612257662386f26fc1000060196151ee565b6122619190615205565b92506064612277662386f26fc1000060326151ee565b6122819190615205565b915061230c565b60038a8101805460ff1916909117905560028a015490945084906064906122b09060196151ee565b6122ba9190615205565b6122cb90662386f26fc10000615224565b935060648a6002015460196122e091906151ee565b6122ea9190615205565b925060648a6002015460326122ff91906151ee565b6123099190615205565b91505b83156123ac575f856001600160a01b0316856040515f6040518083038185875af1925050503d805f811461235b576040519150601f19603f3d011682016040523d82523d5f602084013e612360565b606091505b50509050806123aa5760405162461bcd60e51b815260206004820152601660248201527515da5b9b995c881d1c985b9cd9995c8819985a5b195960521b6044820152606401610bd5565b505b8215612454575f80546040516001600160a01b039091169085908381818185875af1925050503d805f81146123fc576040519150601f19603f3d011682016040523d82523d5f602084013e612401565b606091505b50509050806124525760405162461bcd60e51b815260206004820152601860248201527f506c6174666f726d207472616e73666572206661696c656400000000000000006044820152606401610bd5565b505b81156124fc576001546040515f916001600160a01b03169084908381818185875af1925050503d805f81146124a4576040519150601f19603f3d011682016040523d82523d5f602084013e6124a9565b606091505b50509050806124fa5760405162461bcd60e51b815260206004820152601860248201527f5265736f6c766572207472616e73666572206661696c656400000000000000006044820152606401610bd5565b505b5f826125088587615224565b6125129190615224565b6040805189151581526001600160a01b03891660208201529081018290529091508c907fd79c7bf0a13c60fec474d1ad5bd5f53ef7ead11086b2795ba153851d65331e549060600160405180910390a260408051868152602081018690529081018490526001600160a01b038716908d907f10867ca466a13ec6d2892e3ae7e28b3cd240e5698605a673eb7e215e1476040b9060600160405180910390a3505050505050505050505050565b60605f600a546001600160401b038111156125db576125db61459e565b60405190808252806020026020018201604052801561261457816020015b612601614438565b8152602001906001900390816125f95790505b5090505f60015b600a5481116128ef575f8181526002602090815260408083208151610140810190925280546001600160a01b03168252600181018054929391929184019161266290614d36565b80601f016020809104026020016040519081016040528092919081815260200182805461268e90614d36565b80156126d95780601f106126b0576101008083540402835291602001916126d9565b820191905f5260205f20905b8154815290600101906020018083116126bc57829003601f168201915b50505091835250506002820154602082015260038083015460409092019160ff169081111561270a5761270a6148d1565b600381111561271b5761271b6148d1565b8152600482015460208201526005820154604082015260068201546060820152600782015460ff161515608082015260088201805460a09092019161275f90614d36565b80601f016020809104026020016040519081016040528092919081815260200182805461278b90614d36565b80156127d65780601f106127ad576101008083540402835291602001916127d6565b820191905f5260205f20905b8154815290600101906020018083116127b957829003601f168201915b505050505081526020016009820180546127ef90614d36565b80601f016020809104026020016040519081016040528092919081815260200182805461281b90614d36565b80156128665780601f1061283d57610100808354040283529160200191612866565b820191905f5260205f20905b81548152906001019060200180831161284957829003601f168201915b50505050508152505090505f6003811115612883576128836148d1565b81606001516003811115612899576128996148d1565b1480156128aa57508060c001514211155b156128dc57808484815181106128c2576128c2614d6e565b602002602001018190525082806128d890614d96565b9350505b50806128e781614d96565b91505061261b565b505f816001600160401b038111156129095761290961459e565b60405190808252806020026020018201604052801561294257816020015b61292f614438565b8152602001906001900390816129275790505b5090505f5b82811015610ba45783818151811061296157612961614d6e565b602002602001015182828151811061297b5761297b614d6e565b6020908102919091010152600101612947565b6001600160a01b0382165f9081526008602052604080822090516129b3908490614def565b9081526040519081900360200190205460ff1690505b92915050565b600981815481106129de575f80fd5b905f5260205f20015f91509050805461189090614d36565b81516020818401810180516005825292820191850191909120919052805482908110612a20575f80fd5b5f918252602090912001546001600160a01b03169150829050565b5f546001600160a01b03163314612a645760405162461bcd60e51b8152600401610bd590614dae565b600682604051612a749190614def565b9081526040519081900360200190205460ff16612aa35760405162461bcd60e51b8152600401610bd590615060565b5f815111612ac35760405162461bcd60e51b8152600401610bd590615237565b80600783604051612ad49190614def565b90815260200160405180910390209081610e229190614e50565b60036020525f90815260409020805460018201546002830180546001600160a01b03909316939192612b1f90614d36565b80601f0160208091040260200160405190810160405280929190818152602001828054612b4b90614d36565b8015612b965780601f10612b6d57610100808354040283529160200191612b96565b820191905f5260205f20905b815481529060010190602001808311612b7957829003601f168201915b5050505050908060030154908060040154905085565b5f8381526002602052604090206001018054612bc790614d36565b80601f0160208091040260200160405190810160405280929190818152602001828054612bf390614d36565b8015612c3e5780601f10612c1557610100808354040283529160200191612c3e565b820191905f5260205f20905b815481529060010190602001808311612c2157829003601f168201915b5050335f90815260086020526040908190209051909350612c629250849150614def565b9081526040519081900360200190205460ff16612c915760405162461bcd60e51b8152600401610bd590614fe2565b5f84118015612ca25750600a548411155b612cbe5760405162461bcd60e51b8152600401610bd590614f31565b60015f85815260026020526040902060039081015460ff1690811115612ce657612ce66148d1565b14612d2d5760405162461bcd60e51b815260206004820152601760248201527610db185a5b481a5cc81b9bdd0818da185b1b195b99d959604a1b6044820152606401610bd5565b5f825111612d7d5760405162461bcd60e51b815260206004820152601960248201527f526561736f6e696e672063616e6e6f7420626520656d707479000000000000006044820152606401610bd5565b5f848152600260205260409020546001600160a01b03163303612df25760405162461bcd60e51b815260206004820152602760248201527f436c61696d616e742063616e6e6f7420766f7465206f6e207468656972206f776044820152666e20636c61696d60c81b6064820152608401610bd5565b5f848152600460205260408120905b8154811015612ea557336001600160a01b0316828281548110612e2657612e26614d6e565b5f9182526020909120600390910201546001600160a01b031603612e9d5760405162461bcd60e51b815260206004820152602860248201527f596f75206861766520616c726561647920766f746564206f6e2074686973206360448201526768616c6c656e676560c01b6064820152608401610bd5565b600101612e01565b506040805160808101825233815285151560208083019182529282018681524260608401528454600181810187555f878152959095208451600390920201805493511515600160a01b026001600160a81b03199094166001600160a01b039290921691909117929092178255519192909190820190612f249082614e50565b5060608201518160020155505084336001600160a01b03167f095373d45e744e71221ee0fcec42e8b0409b5e31f501b1b796754d892bd70ec18686604051612f6d929190615278565b60405180910390a35050505050565b60605f600a546001600160401b03811115612f9957612f9961459e565b604051908082528060200260200182016040528015612fc2578160200160208202803683370190505b5090505f60015b600a54811161329c575f8181526002602090815260408083208151610140810190925280546001600160a01b03168252600181018054929391929184019161301090614d36565b80601f016020809104026020016040519081016040528092919081815260200182805461303c90614d36565b80156130875780601f1061305e57610100808354040283529160200191613087565b820191905f5260205f20905b81548152906001019060200180831161306a57829003601f168201915b50505091835250506002820154602082015260038083015460409092019160ff16908111156130b8576130b86148d1565b60038111156130c9576130c96148d1565b8152600482015460208201526005820154604082015260068201546060820152600782015460ff161515608082015260088201805460a09092019161310d90614d36565b80601f016020809104026020016040519081016040528092919081815260200182805461313990614d36565b80156131845780601f1061315b57610100808354040283529160200191613184565b820191905f5260205f20905b81548152906001019060200180831161316757829003601f168201915b5050505050815260200160098201805461319d90614d36565b80601f01602080910402602001604051908101604052809291908181526020018280546131c990614d36565b80156132145780601f106131eb57610100808354040283529160200191613214565b820191905f5260205f20905b8154815290600101906020018083116131f757829003601f168201915b50505050508152505090505f6003811115613231576132316148d1565b81606001516003811115613247576132476148d1565b14801561325857508060c001514211155b15613289578184848151811061327057613270614d6e565b60209081029190910101528261328581614d96565b9350505b508061329481614d96565b915050612fc9565b505f816001600160401b038111156132b6576132b661459e565b6040519080825280602002602001820160405280156132df578160200160208202803683370190505b5090505f5b82811015610ba4578381815181106132fe576132fe614d6e565b602002602001015182828151811061331857613318614d6e565b60209081029190910101526001016132e4565b606060068260405161333d9190614def565b9081526040519081900360200190205460ff1661336c5760405162461bcd60e51b8152600401610bd590615060565b60078260405161337c9190614def565b9081526020016040518091039020805461339590614d36565b80601f01602080910402602001604051908101604052809291908181526020018280546133c190614d36565b8015611c005780601f106133e357610100808354040283529160200191611c00565b820191905f5260205f20905b8154815290600101906020018083116133ef5750939695505050505050565b60026020525f9081526040902080546001820180546001600160a01b03909216929161343990614d36565b80601f016020809104026020016040519081016040528092919081815260200182805461346590614d36565b80156134b05780601f10613487576101008083540402835291602001916134b0565b820191905f5260205f20905b81548152906001019060200180831161349357829003601f168201915b50505060028401546003850154600486015460058701546006880154600789015460088a018054999a969960ff96871699509497509295919416929091906134f790614d36565b80601f016020809104026020016040519081016040528092919081815260200182805461352390614d36565b801561356e5780601f106135455761010080835404028352916020019161356e565b820191905f5260205f20905b81548152906001019060200180831161355157829003601f168201915b50505050509080600901805461358390614d36565b80601f01602080910402602001604051908101604052809291908181526020018280546135af90614d36565b80156135fa5780601f106135d1576101008083540402835291602001916135fa565b820191905f5260205f20905b8154815290600101906020018083116135dd57829003601f168201915b505050505090508a565b5f6006826040516136159190614def565b9081526040519081900360200190205460ff1692915050565b60606009805480602002602001604051908101604052809291908181526020015f905b828210156136f9578382905f5260205f2001805461366e90614d36565b80601f016020809104026020016040519081016040528092919081815260200182805461369a90614d36565b80156136e55780601f106136bc576101008083540402835291602001916136e5565b820191905f5260205f20905b8154815290600101906020018083116136c857829003601f168201915b505050505081526020019060010190613651565b50505050905090565b5f821180156137135750600a548211155b61372f5760405162461bcd60e51b8152600401610bd590614f31565b5f828152600260205260409020546001600160a01b031633146137a25760405162461bcd60e51b815260206004820152602560248201527f4f6e6c792074686520636c61696d616e742063616e207375626d697420736f6c6044820152643aba34b7b760d91b6064820152608401610bd5565b5f82815260026020526040812060039081015460ff16908111156137c8576137c86148d1565b146138155760405162461bcd60e51b815260206004820152601d60248201527f436c61696d206973206e6f7420696e2070656e64696e672073746174650000006044820152606401610bd5565b5f828152600260205260409020600501544211156138755760405162461bcd60e51b815260206004820181905260248201527f50726f626c656d20736f6c76696e672074696d652068617320657870697265646044820152606401610bd5565b5f8281526002602052604090206007015460ff16156138d65760405162461bcd60e51b815260206004820152601a60248201527f536f6c7574696f6e20616c7265616479207375626d69747465640000000000006044820152606401610bd5565b5f8151116139265760405162461bcd60e51b815260206004820152601860248201527f536f6c7574696f6e2063616e6e6f7420626520656d70747900000000000000006044820152606401610bd5565b5f82815260026020526040902060078101805460ff1916600117905560090161394f8282614e50565b50817f6278873f58333d34a6ef64cd09d863b774adbc11b1eb3d44bae9f85d6175626f8260405161107c91906148bf565b606060045f8381526020019081526020015f20805480602002602001604051908101604052809291908181526020015f905b82821015613aa5575f848152602090819020604080516080810182526003860290920180546001600160a01b0381168452600160a01b900460ff1615159383019390935260018301805492939291840191613a0c90614d36565b80601f0160208091040260200160405190810160405280929190818152602001828054613a3890614d36565b8015613a835780601f10613a5a57610100808354040283529160200191613a83565b820191905f5260205f20905b815481529060010190602001808311613a6657829003601f168201915b50505050508152602001600282015481525050815260200190600101906139b2565b505050509050919050565b5f546001600160a01b03163314613ad95760405162461bcd60e51b8152600401610bd590614dae565b5f825111613af95760405162461bcd60e51b8152600401610bd590615292565b5f815111613b195760405162461bcd60e51b8152600401610bd590615237565b600682604051613b299190614def565b9081526040519081900360200190205460ff1615613b805760405162461bcd60e51b8152602060048201526014602482015273536b696c6c20616c72656164792065786973747360601b6044820152606401610bd5565b6001600683604051613b929190614def565b908152604051908190036020018120805492151560ff19909316929092179091558190600790613bc3908590614def565b90815260200160405180910390209081613bdd9190614e50565b50600980546001810182555f919091527f6e1540171b6c0c960b71a7020d9f60077f6af931a8bbf590da0223dacf75c7af01613c198382614e50565b507fec30c61dce44ddcaec234c882fd9cc39db35bc5979c3c5f35286c9498e1547dc8282604051613c4b929190614f0d565b60405180910390a15050565b5f546001600160a01b03163314613c805760405162461bcd60e51b8152600401610bd590614dae565b4780613cc55760405162461bcd60e51b81526020600482015260146024820152734e6f2066756e647320746f20776974686472617760601b6044820152606401610bd5565b5f80546040516001600160a01b039091169083908381818185875af1925050503d805f8114613d0f576040519150601f19603f3d011682016040523d82523d5f602084013e613d14565b606091505b50509050806110855760405162461bcd60e51b815260206004820152601160248201527015da5d1a191c985dd85b0819985a5b1959607a1b6044820152606401610bd5565b662386f26fc100003414613dbd5760405162461bcd60e51b815260206004820152602560248201527f5374616b6520616d6f756e74206d7573742062652065786163746c7920302e30604482015264062408aa8960db1b6064820152608401610bd5565b5f815111613ddd5760405162461bcd60e51b8152600401610bd590615292565b600681604051613ded9190614def565b9081526040519081900360200190205460ff16613e585760405162461bcd60e51b815260206004820152602360248201527f536b696c6c206973206e6f7420617661696c61626c6520666f7220636c61696d604482015262696e6760e81b6064820152608401610bd5565b335f90815260086020526040908190209051613e75908390614def565b9081526040519081900360200190205460ff1615613ee15760405162461bcd60e51b8152602060048201526024808201527f596f7520616c72656164792068617665207468697320736b696c6c2076657269604482015263199a595960e21b6064820152608401610bd5565b5f600782604051613ef29190614def565b90815260200160405180910390208054613f0b90614d36565b80601f0160208091040260200160405190810160405280929190818152602001828054613f3790614d36565b8015613f825780601f10613f5957610100808354040283529160200191613f82565b820191905f5260205f20905b815481529060010190602001808311613f6557829003601f168201915b505050505090505f815111613fea5760405162461bcd60e51b815260206004820152602860248201527f50726f626c656d2073746174656d656e74206e6f742073657420666f722074686044820152671a5cc81cdada5b1b60c21b6064820152608401610bd5565b600a8054905f613ff983614d96565b90915550506040805161014081018252338152602081018490523491810191909152606081015f8152602001428152602001611c20426140399190615224565b81526020016203f48061404e611c2042615224565b6140589190615224565b81525f6020808301829052604080840186905280518083018252838152606090940193909352600a54825260028152919020825181546001600160a01b0319166001600160a01b039091161781559082015160018201906140b99082614e50565b50604082015181600201556060820151816003015f6101000a81548160ff021916908360038111156140ed576140ed6148d1565b02179055506080820151600482015560a0820151600582015560c0820151600682015560e082015160078201805460ff1916911515919091179055610100820151600882019061413d9082614e50565b5061012082015160098201906141539082614e50565b50905050600a54336001600160a01b03167f64c2a6872e2adcb5ab4c205734f7f1faadfd9b085b2a0ec7ceb49146d4c65320843485604051614197939291906152c9565b60405180910390a35050565b5f546001600160a01b031633146141cc5760405162461bcd60e51b8152600401610bd590614dae565b6001600160a01b0382166142225760405162461bcd60e51b815260206004820152601b60248201527f5573657220616464726573732063616e6e6f74206265207a65726f00000000006044820152606401610bd5565b5f8151116142425760405162461bcd60e51b8152600401610bd590615292565b6006816040516142529190614def565b9081526040519081900360200190205460ff166142815760405162461bcd60e51b8152600401610bd590615060565b6001600160a01b0382165f908152600860205260409081902090516142a7908390614def565b9081526040519081900360200190205460ff16156143075760405162461bcd60e51b815260206004820152601b60248201527f5573657220616c726561647920686173207468697320736b696c6c00000000006044820152606401610bd5565b6143118282614354565b336001600160a01b0316826001600160a01b03167f690fcac2743310e28e52e9f62bd8130d0af5fbe9fc6a91a0ebe131c858890f478360405161419791906148bf565b5f6005826040516143659190614def565b90815260405190819003602001902090505f5b81548110156143c457836001600160a01b031682828154811061439d5761439d614d6e565b5f918252602090912001546001600160a01b0316036143bc5750505050565b600101614378565b508054600180820183555f838152602080822090930180546001600160a01b0319166001600160a01b038816908117909155815260089092526040918290209151909190614413908590614def565b908152604051908190036020019020805491151560ff19909216919091179055505050565b6040518061014001604052805f6001600160a01b03168152602001606081526020015f81526020015f6003811115614472576144726148d1565b81526020015f81526020015f81526020015f81526020015f1515815260200160608152602001606081525090565b5080546144ac90614d36565b5f825580601f106144bb575050565b601f0160209004905f5260205f20908101906144d791906144da565b50565b5b808211156144ee575f81556001016144db565b5090565b5f81518084528060208401602086015e5f602082860101526020601f19601f83011685010191505092915050565b5f602082016020835280845180835260408501915060408160051b8601019250602086015f5b8281101561457757603f198786030184526145628583516144f2565b94506020938401939190910190600101614546565b50929695505050505050565b80356001600160a01b0381168114614599575f5ffd5b919050565b634e487b7160e01b5f52604160045260245ffd5b604051601f8201601f191681016001600160401b03811182821017156145da576145da61459e565b604052919050565b5f82601f8301126145f1575f5ffd5b81356001600160401b0381111561460a5761460a61459e565b61461d601f8201601f19166020016145b2565b818152846020838601011115614631575f5ffd5b816020850160208301375f918101602001919091529392505050565b5f5f6040838503121561465e575f5ffd5b61466783614583565b915060208301356001600160401b03811115614681575f5ffd5b61468d858286016145e2565b9150509250929050565b5f82601f8301126146a6575f5ffd5b81356001600160401b038111156146bf576146bf61459e565b8060051b6146cf602082016145b2565b918252602081850181019290810190868411156146ea575f5ffd5b6020860192505b8383101561472f5782356001600160401b0381111561470e575f5ffd5b61471d886020838a01016145e2565b835250602092830192909101906146f1565b9695505050505050565b5f5f6040838503121561474a575f5ffd5b82356001600160401b0381111561475f575f5ffd5b61476b85828601614697565b92505060208301356001600160401b03811115614786575f5ffd5b61468d85828601614697565b5f602082840312156147a2575f5ffd5b5035919050565b5f5f604083850312156147ba575f5ffd5b50508035926020909101359150565b6001600160a01b038516815283151560208201526080604082018190525f906147f4908301856144f2565b905082606083015295945050505050565b5f60208284031215614815575f5ffd5b81356001600160401b0381111561482a575f5ffd5b614836848285016145e2565b949350505050565b5f5f6040838503121561484f575f5ffd5b8235915060208301356001600160401b03811115614681575f5ffd5b5f6020828403121561487b575f5ffd5b61488482614583565b9392505050565b5f5f6040838503121561489c575f5ffd5b6148a583614583565b915060208301356001600160401b03811115614786575f5ffd5b602081525f61488460208301846144f2565b634e487b7160e01b5f52602160045260245ffd5b6004811061490157634e487b7160e01b5f52602160045260245ffd5b9052565b80516001600160a01b031682525f6020820151610140602085015261492e6101408501826144f2565b905060408301516040850152606083015161494c60608601826148e5565b506080830151608085015260a083015160a085015260c083015160c085015260e083015161497e60e086018215159052565b5061010083015184820361010086015261499882826144f2565b9150506101208301518482036101208601526149b482826144f2565b95945050505050565b602081525f6148846020830184614905565b602080825282518282018190525f918401906040840190835b81811015614a0f5783516001600160a01b03168352602093840193909201916001016149e8565b509095945050505050565b6020815260018060a01b038251166020820152602082015160408201525f604083015160a06060840152614a5160c08401826144f2565b905060608401516080840152608084015160a08401528091505092915050565b5f602082016020835280845180835260408501915060408160051b8601019250602086015f5b8281101561457757603f19878603018452614ab3858351614905565b94506020938401939190910190600101614a97565b5f5f60408385031215614ad9575f5ffd5b82356001600160401b03811115614aee575f5ffd5b614afa858286016145e2565b95602094909401359450505050565b5f5f60408385031215614b1a575f5ffd5b82356001600160401b03811115614b2f575f5ffd5b614b3b858286016145e2565b92505060208301356001600160401b03811115614681575f5ffd5b60018060a01b038616815284602082015260a060408201525f614b7c60a08301866144f2565b606083019490945250608001529392505050565b5f5f5f60608486031215614ba2575f5ffd5b8335925060208401358015158114614bb8575f5ffd5b915060408401356001600160401b03811115614bd2575f5ffd5b614bde868287016145e2565b9150509250925092565b602080825282518282018190525f918401906040840190835b81811015614a0f578351835260209384019390920191600101614c01565b6001600160a01b038b168152610140602082018190525f90614c439083018c6144f2565b8a6040840152614c56606084018b6148e5565b8860808401528760a08401528660c084015285151560e0840152828103610100840152614c8381866144f2565b9050828103610120840152614c9881856144f2565b9d9c50505050505050505050505050565b5f602082016020835280845180835260408501915060408160051b8601019250602086015f5b8281101561457757603f19878603018452815160018060a01b038151168652602081015115156020870152604081015160806040880152614d1360808801826144f2565b606092830151979092019690965294506020938401939190910190600101614ccf565b600181811c90821680614d4a57607f821691505b602082108103614d6857634e487b7160e01b5f52602260045260245ffd5b50919050565b634e487b7160e01b5f52603260045260245ffd5b634e487b7160e01b5f52601160045260245ffd5b5f60018201614da757614da7614d82565b5060010190565b60208082526021908201527f4f6e6c79206f776e65722063616e2063616c6c20746869732066756e6374696f6040820152603760f91b606082015260800190565b5f82518060208501845e5f920191825250919050565b601f821115610e2257805f5260205f20601f840160051c81016020851015614e2a5750805b601f840160051c820191505b81811015614e49575f8155600101614e36565b5050505050565b81516001600160401b03811115614e6957614e6961459e565b614e7d81614e778454614d36565b84614e05565b6020601f821160018114614eb2575f8315614e985750848201515b600184901b5f19600386901b1c198216175b855550614e49565b5f84815260208120601f198516915b82811015614ee15787850151825560209485019460019092019101614ec1565b5084821015614efe57868401515f19600387901b60f8161c191681555b50505050600190811b01905550565b604081525f614f1f60408301856144f2565b82810360208401526149b481856144f2565b60208082526010908201526f125b9d985b1a590818db185a5b48125160821b604082015260600190565b602081525f5f8354614f6c81614d36565b806020860152600182165f8114614f8a5760018114614fa657614fd7565b60ff1983166040870152604082151560051b8701019350614fd7565b865f5260205f205f5b83811015614fce57815488820160400152600190910190602001614faf565b87016040019450505b509195945050505050565b60208082526038908201527f596f75206d7573742068617665207468697320736b696c6c207665726966696560408201527f6420746f20706572666f726d207468697320616374696f6e0000000000000000606082015260800190565b604081525f61505160408301856144f2565b90508260208301529392505050565b60208082526014908201527314dada5b1b08191bd95cc81b9bdd08195e1a5cdd60621b604082015260600190565b5f5f835461509b81614d36565b6001821680156150b257600181146150c757614fd7565b60ff1983168652811515820286019350614fd7565b865f5260205f205f5b838110156150ec578154888201526001909101906020016150d0565b50505093909301949350505050565b818103818111156129c9576129c9614d82565b818103615119575050565b6151238254614d36565b6001600160401b0381111561513a5761513a61459e565b61514881614e778454614d36565b5f601f821160018114615177575f8315614e98575081850154600184901b5f19600386901b1c19821617614eaa565b5f8581526020808220868352908220601f198616925b838110156151ad578286015482556001958601959091019060200161518d565b50858310156151ca57818501545f19600388901b60f8161c191681555b5050505050600190811b01905550565b634e487b7160e01b5f52603160045260245ffd5b80820281158282048414176129c9576129c9614d82565b5f8261521f57634e487b7160e01b5f52601260045260245ffd5b500490565b808201808211156129c9576129c9614d82565b60208082526021908201527f50726f626c656d2073746174656d656e742063616e6e6f7420626520656d70746040820152607960f81b606082015260800190565b8215158152604060208201525f61483660408301846144f2565b60208082526018908201527f536b696c6c2049442063616e6e6f7420626520656d7074790000000000000000604082015260600190565b606081525f6152db60608301866144f2565b846020840152828103604084015261472f81856144f256fea264697066735822122033a36d29841d42f54f5de55a99f52ee5aa67643a6082e388b9943c4a01f6e4dc64736f6c634300081c0033",
  "linkReferences": {},
  "deployedLinkReferences": {},
  "immutableReferences": {},
  "inputSourceName": "project/contracts/SkillVerification.sol",
  "buildInfoId": "solc-0_8_28-84b230335e7437844dc824ab0e3ce67d4686ddd8"
}